:100000000C9462000C948A000C948A000C948A0070
:100010000C948A000C948A000C948A000C948A0038
:100020000C948A000C948A000C948A000C948A0028
:100030000C948A000C948A000C948A000C948A0018
:100040000C946A030C948A000C9438030C941203E9
:100050000C948A000C948A000C948A000C948A00F8
:100060000C948A000C948A000000000024002700F1
:100070002A0000000000250028002B0000000000DE
:1000800023002600290004040404040404040202DA
:100090000202020203030303030301020408102007
:1000A0004080010204081020010204081020000012
:1000B0000008000201000003040700000000000027
:1000C00000008F0611241FBECFEFD8E0DEBFCDBFEA
:1000D00011E0A0E0B1E0E4E4F2E102C005900D928D
:1000E000AA3EB107D9F722E0AAEEB1E001C01D9205
:1000F000A439B207E1F710E0C2E6D0E004C02197CE
:10010000FE010E941A09C136D107C9F70E94B40343
:100110000C9420090C940000AF92BF92CF92DF9212
:10012000EF92FF920F931F93CF93DF936C017B01AC
:100130008B01040F151FEB015E01AE18BF08C0173D
:10014000D10759F06991D601ED91FC910190F081B0
:10015000E02DC6010995892B79F7C501DF91CF9173
:100160001F910F91FF90EF90DF90CF90BF90AF90D5
:100170000895FC01538D448D252F30E0842F90E0AD
:10018000821B930B541710F0CF9608950197089592
:10019000FC01918D828D981761F0A28DAE0FBF2F5B
:1001A000B11D5D968C91928D9F5F9F73928F90E0B1
:1001B00008958FEF9FEF0895FC01918D828D981720
:1001C00031F0828DE80FF11D858D90E008958FEF5D
:1001D0009FEF0895FC01918D228D892F90E0805C26
:1001E0009F4F821B91098F739927089587EF91E0A4
:1001F0000E94EA0021E0892B09F420E0822F089573
:1002000080E090E0892B29F00E94F60081110C9487
:1002100000000895FC01A48DA80FB92FB11DA35AA9
:10022000BF4F2C91848D90E001968F739927848F16
:10023000A689B7892C93A089B1898C918370806439
:100240008C93938D848D981306C00288F389E02DDA
:1002500080818F7D80830895EF92FF920F931F938B
:10026000CF93DF93EC0181E0888F9B8D8C8D981369
:100270001AC0E889F989808185FF15C09FB7F89475
:10028000EE89FF896083E889F989808183708064C1
:1002900080839FBF81E090E0DF91CF911F910F910C
:1002A000FF90EF900895F62E0B8D10E00F5F1F4F1B
:1002B0000F731127E02E8C8D8E110CC00FB607FC2A
:1002C000FACFE889F989808185FFF5CFCE010E94B8
:1002D0000A01F1CFEB8DEC0FFD2FF11DE35AFF4F1B
:1002E000F0829FB7F8940B8FEA89FB898081806246
:1002F000CFCFCF93DF93EC01888D8823B9F0AA8903
:10030000BB89E889F9898C9185FD03C0808186FDD0
:100310000DC00FB607FCF7CF8C9185FFF2CF80811F
:1003200085FFEDCFCE010E940A01E9CFDF91CF9189
:100330000895833081F028F4813099F08230A9F05B
:1003400008958730A9F08830C9F08430B1F48091E5
:1003500080008F7D03C0809180008F778093800024
:10036000089584B58F7784BD089584B58F7DFBCFC4
:100370008091B0008F778093B00008958091B00095
:100380008F7DF9CFCF93DF93282F30E0F901E2552D
:10039000FF4F8491F901E656FF4FD491F901EA57D6
:1003A000FF4FC491CC23A1F081110E949901EC2F41
:1003B000F0E0EE0FFF1FE458FF4FA591B491EC91D0
:1003C000ED2381E090E009F480E0DF91CF91089582
:1003D00080E090E0FACF1F93CF93DF93282F30E097
:1003E000F901E255FF4F8491F901E656FF4FD49190
:1003F000F901EA57FF4FC491CC23A9F0162F8111C0
:100400000E949901EC2FF0E0EE0FFF1FEE58FF4F16
:10041000A591B4918FB7F894EC91111108C0D095C3
:10042000DE23DC938FBFDF91CF911F910895DE2BE8
:10043000F8CFCF93DF9390E0FC01E656FF4F249175
:100440008A579F4FFC0184918823D1F090E0880F58
:10045000991FFC01E859FF4FA591B491FC01EE589A
:10046000FF4FC591D49161110EC09FB7F8948C9144
:10047000E22FE0958E238C932881E223E8839FBFAF
:10048000DF91CF9108958FB7F894EC91E22BEC9324
:100490008FBFF6CF8E50806480937C0080917A006D
:1004A000806480937A0080917A0086FDFCCF8091F1
:1004B00078009091790008953FB7F8948091EB010E
:1004C0009091EC01A091ED01B091EE0126B5A89BB1
:1004D00005C02F3F19F00196A11DB11D3FBFBA2FD6
:1004E000A92F982F8827BC01CD01620F711D811D96
:1004F000911D42E0660F771F881F991F4A95D1F71B
:1005000008958F929F92AF92BF92CF92DF92EF9217
:10051000FF924B015C010E945C026B017C010E9416
:100520005C026C197D098E099F09683E7340810544
:100530009105A8F321E0821A9108A108B10888EE7C
:10054000C80E83E0D81EE11CF11C81149104A104A3
:10055000B10429F7FF90EF90DF90CF90BF90AF905C
:100560009F908F900895FC0101900020E9F731974A
:10057000AF01481B590BBC0187EF91E00C948C0034
:100580008F929F92AF92BF920F931F93CF93DF935F
:10059000CDB7DEB7A1970FB6F894DEBF0FBECDBFC3
:1005A00019A2423008F44AE08E010F5D1F4F842EDD
:1005B000912CB12CA12CA50194010E94F808E62FE2
:1005C000B901CA01EA30F4F4E05DD801EE938D017F
:1005D000232B242B252B79F790E080E0109719F03E
:1005E000CD010E94B302A1960FB6F894DEBF0FBEF4
:1005F000CDBFDF91CF911F910F91BF90AF909F9092
:100600008F900895E95CE1CFCF93DF930E94B3020E
:10061000EC0182E191E00E94B3028C0F9D1FDF91FB
:10062000CF9108951F920F920FB60F9211242F931E
:100630003F934F935F936F937F938F939F93AF936A
:10064000BF93EF93FF9387EF91E00E940A01FF9120
:10065000EF91BF91AF919F918F917F916F915F913A
:100660004F913F912F910F900FBE0F901F901895B3
:100670001F920F920FB60F9211242F938F939F9377
:10068000EF93FF93E0910702F09108028081E091DF
:100690000D02F0910E0282FD1BC09081809110022C
:1006A0008F5F8F7320911102821741F0E091100249
:1006B000F0E0E950FE4F958F80931002FF91EF918B
:1006C0009F918F912F910F900FBE0F901F901895B3
:1006D0008081F4CF1F920F920FB60F9211242F93A7
:1006E0003F938F939F93AF93BF938091EF0190912E
:1006F000F001A091F101B091F2013091EA0123E003
:10070000230F2D3758F50196A11DB11D2093EA0145
:100710008093EF019093F001A093F101B093F20167
:100720008091EB019091EC01A091ED01B091EE016F
:100730000196A11DB11D8093EB019093EC01A09354
:10074000ED01B093EE01BF91AF919F918F913F91D9
:100750002F910F900FBE0F901F90189526E8230F32
:100760000296A11DB11DD2CF789484B5826084BD5C
:1007700084B5816084BD85B5826085BD85B58160A5
:1007800085BD80916E00816080936E001092810023
:1007900080918100826080938100809181008160DE
:1007A000809381008091800081608093800080919F
:1007B000B10084608093B1008091B000816080932B
:1007C000B00080917A00846080937A0080917A00F2
:1007D000826080937A0080917A00816080937A00B1
:1007E00080917A00806880937A001092C100E09135
:1007F0000702F091080282E08083E0910302F09109
:1008000004021082E0910502F09106028FEC8083D1
:1008100010920F02E0910B02F0910C0286E08083AF
:10082000E0910902F0910A02808180618083E09169
:100830000902F0910A02808188608083E0910902B8
:10084000F0910A02808180688083E0910902F09132
:100850000A0280818F7D808360E08EE00E94190211
:1008600060E08FE00E94190260E080E10E941902BE
:1008700060E082E00E94190260E083E00E941902B9
:1008800061E084E00E94190261E085E00E941902A3
:1008900061E086E00E94190261E087E00E9419028F
:1008A00061E088E00E94190261E089E00E9419027B
:1008B00061E08AE00E94190261E08BE00E94190267
:1008C00061E08CE00E94190261E08DE00E94190253
:1008D00000E010E08EE00E944A02BC01990F880BF4
:1008E000990B0E94D10720E030E040EA50E40E94DA
:1008F000860820E030EC4FE754E40E942E0720E009
:1009000030E048EC52E40E9486082B013C018FE065
:100910000E944A02EC0180E10E944A026C0182E0DE
:100920000E94C2015C0183E00E94C2017C0160E080
:1009300084E00E94EB0160E085E00E94EB0160E052
:1009400086E00E94EB0160E087E00E94EB0160E03E
:1009500088E00E94EB0160E089E00E94EB0120E06A
:1009600030E04CE052E4C301B2010E948108181645
:100970000CF0A6C061E089E00E94EB0185E191E006
:100980000E94040399249394AB2809F4ABC061E05E
:1009900087E00E94EB0180E591E00E940403AA2415
:1009A000A394BB24B39425EFC21621E0D20664F0D1
:1009B00061E087E00E94EB0181E691E00E94040380
:1009C000AA24A394BB24B394EF2851F061E088E0FB
:1009D0000E94EB0184E791E00E940403BB24B394DE
:1009E000CC3281E0D8070CF080C08DE891E00E9405
:1009F000040380E4E82EF12C61E08AE00E94EB0120
:100A000060E08BE00E94EB0160E08CE00E94EB0173
:100A100060E08DE00E94EB0165E070E080E090E036
:100A20000E94810260E08AE00E94EB0161E08BE0BD
:100A30000E94EB0160E08CE00E94EB0160E08DE041
:100A40000E94EB0165E070E080E090E00E9481028E
:100A500060E08AE00E94EB0160E08BE00E94EB0125
:100A600061E08CE00E94EB0160E08DE00E94EB0110
:100A700065E070E080E090E00E94810260E08AE042
:100A80000E94EB0160E08BE00E94EB0160E08CE0F3
:100A90000E94EB0161E08DE00E94EB0165E070E0F7
:100AA00080E090E00E94810221E0E21AF10809F062
:100AB000A3CFBB24B394AA2009F495C0BA2C18C0C4
:100AC00020E030E040E751E4C301B2010E94290771
:100AD000912C87FF59CF61E089E00E94EB0183E30D
:100AE00091E04ECFB92CA12C5ECFAA2009F479C099
:100AF00061E084E00E94EB01B11061C02FB7F8946F
:100B00008091EF019091F001A091F101B091F2017B
:100B10002FBF4091F3015091F4016091F501709164
:100B2000F601841B950BA60BB70B89389341A105E1
:100B3000B10508F444C085EA91E00E94B302A30124
:100B40009201C301B2010E94F308882309F455C041
:100B500089EC91E00E94B30285ED91E00E94B3021E
:100B60006E01DD0FEE08FF084AE0C701B601F7FE8F
:100B70000DC06DE287EF91E00E942C016627772778
:100B8000CB016C197D098E099F094AE00E94C002C1
:100B900082E191E00E94B3022FB7F8948091EF01B7
:100BA0009091F001A091F101B091F2012FBF8093DB
:100BB000F3019093F401A093F501B093F60168EE70
:100BC00073E080E090E00E9481020115110509F4B4
:100BD00081CE0E94F600882309F47CCE0E9400009A
:100BE00079CE992019F061E086E084CFB110E7CF8B
:100BF00061E085E00E94EB0181CF73016201E8941E
:100C0000F7F82FEF3FEF4FE75FE7C701B6010E940C
:100C1000F30881110DC02FEF3FEF4FE75FE7C701EA
:100C2000B6010E94290718161CF48DEC91E092CFB2
:100C30002FEF3FEF4FE75FE4C301B2010E9481084D
:100C400018161CF481ED91E085CF2FEF3FEF4FE7B1
:100C50005FECC301B2010E94290787FDF3CF20E0BA
:100C600030E0A901C301B2010E94290787FF09C032
:100C70006DE287EF91E00E942C0177FA709477F88B
:100C800070942AE037ED43EA5BE3C301B2010E94AE
:100C9000BD062B013C010E94A0076B017C010E9454
:100CA000CF079B01AC01C301B2010E94BC062B011E
:100CB0003C014AE0C701B6010E94C0026EE287EF24
:100CC00091E00E942C0120E030E040E251E4C301B9
:100CD000B2010E9486082B013C010E94A0076B0113
:100CE000F12CE12C4AE0C701B6010E94C002C70105
:100CF000B6010E94CF079B01AC01C301B2010E9463
:100D0000BC0620E030E040E251E40E9486080E94E8
:100D1000A00790E080E04AE00E94C0021DCFE7EF0C
:100D2000F1E01382128288EE93E0A0E0B0E08483C9
:100D30009583A683B78384E091E09183808385ECDB
:100D400090E09587848784EC90E09787868780EC95
:100D500090E0918B808B81EC90E0938B828B82EC86
:100D600090E0958B848B86EC90E0978B868B118E30
:100D7000128E138E148E08955058BB27AA270E94F6
:100D8000D4060C9447080E94390838F00E944008A5
:100D900020F039F49F3F19F426F40C9436080EF431
:100DA000E095E7FB0C943008E92F0E94580858F3AF
:100DB000BA17620773078407950720F079F4A6F540
:100DC0000C947A080EF4E0950B2EBA2FA02D0B018F
:100DD000B90190010C01CA01A0011124FF27591B80
:100DE00099F0593F50F4503E68F11A16F040A22F86
:100DF000232F342F4427585FF3CF469537952795F7
:100E0000A795F0405395C9F77EF41F16BA0B620BF5
:100E1000730B840BBAF09150A1F0FF0FBB1F661F3C
:100E2000771F881FC2F70EC0BA0F621F731F841F7F
:100E300048F4879577956795B795F7959E3F08F0A5
:100E4000B0CF9395880F08F09927EE0F9795879567
:100E500008950E940C0808F481E008950E9442075A
:100E60000C9447080E94400858F00E94390840F04E
:100E700029F45F3F29F00C94300851110C947B0841
:100E80000C9436080E94580868F39923B1F355234F
:100E900091F3951B550BBB27AA276217730784078D
:100EA00038F09F5F5F4F220F331F441FAA1FA9F323
:100EB00035D00E2E3AF0E0E832D091505040E69511
:100EC000001CCAF72BD0FE2F29D0660F771F881F72
:100ED000BB1F261737074807AB07B0E809F0BB0B65
:100EE000802DBF01FF2793585F4F3AF09E3F510579
:100EF00078F00C9430080C947B085F3FE4F3983E44
:100F0000D4F3869577956795B795F7959F5FC9F761
:100F1000880F911D9695879597F90895E1E0660FE2
:100F2000771F881FBB1F621773078407BA0720F05B
:100F3000621B730B840BBA0BEE1F88F7E0950895C4
:100F40000E94600888F09F5798F0B92F9927B751F1
:100F5000B0F0E1F0660F771F881F991F1AF0BA955D
:100F6000C9F714C0B13091F00E947A08B1E0089539
:100F70000C947A08672F782F8827B85F39F0B93F2B
:100F8000CCF3869577956795B395D9F73EF4909510
:100F90008095709561957F4F8F4F9F4F0895E8948E
:100FA00009C097FB3EF490958095709561957F4FB1
:100FB0008F4F9F4F9923A9F0F92F96E9BB2793955F
:100FC000F695879577956795B795F111F8CFFAF46F
:100FD000BB0F11F460FF1BC06F5F7F4F8F4F9F4FA0
:100FE00016C0882311F096E911C0772321F09EE8FE
:100FF000872F762F05C0662371F096E8862F70E064
:1010000060E02AF09A95660F771F881FDAF7880F3D
:101010009695879597F90895990F0008550FAA0B93
:10102000E0E8FEEF16161706E807F907C0F01216FB
:101030001306E407F50798F0621B730B840B950BFE
:1010400039F40A2661F0232B242B252B21F4089553
:101050000A2609F4A140A6958FEF811D811D0895F0
:1010600097F99F6780E870E060E008959FEF80EC5B
:10107000089500240A9416161706180609060895FE
:1010800000240A9412161306140605060895092E64
:101090000394000C11F4882352F0BB0F40F4BF2BD3
:1010A00011F460FF04C06F5F7F4F8F4F9F4F089513
:1010B00057FD9058440F551F59F05F3F71F0479509
:1010C000880F97FB991F61F09F3F79F087950895EE
:1010D000121613061406551FF2CF4695F1DF08C00D
:1010E000161617061806991FF1CF8695710561052A
:1010F00008940895E894BB2766277727CB0197F9D2
:1011000008950E940C0808F48FEF08950E94990832
:101110000C9447080E94390838F00E94400820F0DB
:10112000952311F00C9430080C94360811240C947B
:101130007B080E94580870F3959FC1F3950F50E00B
:10114000551F629FF001729FBB27F00DB11D639F79
:10115000AA27F00DB11DAA1F649F6627B00DA11D1F
:10116000661F829F2227B00DA11D621F739FB00DC5
:10117000A11D621F839FA00D611D221F749F332735
:10118000A00D611D231F849F600D211D822F762FCE
:101190006A2F11249F5750409AF0F1F088234AF0AB
:1011A000EE0FFF1FBB1F661F771F881F9150504017
:1011B000A9F79E3F510580F00C9430080C947B08F1
:1011C0005F3FE4F3983ED4F3869577956795B7959E
:1011D000F795E7959F5FC1F7FE2B880F911D9695B8
:1011E000879597F908950E940C08880B990B08952C
:1011F000A1E21A2EAA1BBB1BFD010DC0AA1FBB1F1B
:10120000EE1FFF1FA217B307E407F50720F0A21B8C
:10121000B30BE40BF50B661F771F881F991F1A94F9
:1012200069F760957095809590959B01AC01BD0123
:10123000CF010895EE0FFF1F0590F491E02D099462
:04124000F894FFCF50
:10124400000000002C018C00B9007901EA00C800FC
:10125400DC000D0A00486967682054656D7065728A
:101264006174757265202D20436F6F6C696E672001
:101274004F4E004C6F772054656D706572617475C4
:101284007265202D2048656174696E67204F4E0099
:10129400526164696174696F6E20416C6572742176
:1012A40000476173204C65616B2044657465637409
:1012B400656421004D61676E6574696320466965E4
:1012C4006C6420446574656374656421004C6F77B5
:1012D400204F787967656E202D2044697370656EA0
:1012E40073696E670045766572797468696E672004
:1012F4006973206E6F726D616C203A2054656D7055
:101304006572617475726520006E616E00696E6647
:10131400006F766600C2B043207C204F7879676501
:0A1324006E206C6576656C200000F9
:00000001FF
